{
  "_format": "hh-sol-artifact-1",
  "contractName": "Supplychain",
  "sourceName": "contracts/Supplychain.sol",
  "abi": [
    {
      "inputs": [],
      "stateMutability": "nonpayable",
      "type": "constructor"
    },
    {
      "inputs": [
        {
          "internalType": "string",
          "name": "name",
          "type": "string"
        }
      ],
      "name": "Addworker",
      "outputs": [],
      "stateMutability": "nonpayable",
      "type": "function"
    },
    {
      "inputs": [],
      "name": "UnitInfo",
      "outputs": [
        {
          "internalType": "string",
          "name": "GLN",
          "type": "string"
        },
        {
          "internalType": "string",
          "name": "GTIN",
          "type": "string"
        },
        {
          "internalType": "string",
          "name": "GSIN",
          "type": "string"
        },
        {
          "internalType": "string",
          "name": "SSCC",
          "type": "string"
        },
        {
          "internalType": "string",
          "name": "SN",
          "type": "string"
        },
        {
          "internalType": "string",
          "name": "name",
          "type": "string"
        },
        {
          "internalType": "string",
          "name": "data",
          "type": "string"
        },
        {
          "internalType": "uint256",
          "name": "worker_id",
          "type": "uint256"
        },
        {
          "internalType": "uint256",
          "name": "id",
          "type": "uint256"
        },
        {
          "internalType": "uint256",
          "name": "timestamp",
          "type": "uint256"
        }
      ],
      "stateMutability": "view",
      "type": "function"
    },
    {
      "inputs": [],
      "name": "WorkerInfo",
      "outputs": [
        {
          "internalType": "uint256",
          "name": "id",
          "type": "uint256"
        },
        {
          "internalType": "string",
          "name": "name",
          "type": "string"
        }
      ],
      "stateMutability": "view",
      "type": "function"
    },
    {
      "inputs": [
        {
          "internalType": "string",
          "name": "GLN",
          "type": "string"
        },
        {
          "internalType": "string",
          "name": "GTIN",
          "type": "string"
        },
        {
          "internalType": "string",
          "name": "GSIN",
          "type": "string"
        },
        {
          "internalType": "string",
          "name": "SSCC",
          "type": "string"
        },
        {
          "internalType": "string",
          "name": "SN",
          "type": "string"
        },
        {
          "internalType": "string",
          "name": "name",
          "type": "string"
        },
        {
          "internalType": "string",
          "name": "data",
          "type": "string"
        },
        {
          "internalType": "uint256",
          "name": "w_id",
          "type": "uint256"
        },
        {
          "internalType": "uint256",
          "name": "timestamp",
          "type": "uint256"
        }
      ],
      "name": "addUnitInfo",
      "outputs": [],
      "stateMutability": "nonpayable",
      "type": "function"
    },
    {
      "inputs": [
        {
          "internalType": "uint256",
          "name": "id",
          "type": "uint256"
        }
      ],
      "name": "get_unit",
      "outputs": [
        {
          "components": [
            {
              "internalType": "string",
              "name": "GLN",
              "type": "string"
            },
            {
              "internalType": "string",
              "name": "GTIN",
              "type": "string"
            },
            {
              "internalType": "string",
              "name": "GSIN",
              "type": "string"
            },
            {
              "internalType": "string",
              "name": "SSCC",
              "type": "string"
            },
            {
              "internalType": "string",
              "name": "SN",
              "type": "string"
            },
            {
              "internalType": "string",
              "name": "name",
              "type": "string"
            },
            {
              "internalType": "string",
              "name": "data",
              "type": "string"
            },
            {
              "internalType": "uint256",
              "name": "worker_id",
              "type": "uint256"
            },
            {
              "internalType": "uint256",
              "name": "id",
              "type": "uint256"
            },
            {
              "internalType": "uint256",
              "name": "timestamp",
              "type": "uint256"
            }
          ],
          "internalType": "struct Supplychain.Unit",
          "name": "",
          "type": "tuple"
        }
      ],
      "stateMutability": "view",
      "type": "function"
    },
    {
      "inputs": [
        {
          "internalType": "string",
          "name": "GTIN",
          "type": "string"
        },
        {
          "internalType": "string",
          "name": "SN",
          "type": "string"
        }
      ],
      "name": "history",
      "outputs": [
        {
          "components": [
            {
              "internalType": "string",
              "name": "GLN",
              "type": "string"
            },
            {
              "internalType": "string",
              "name": "GTIN",
              "type": "string"
            },
            {
              "internalType": "string",
              "name": "GSIN",
              "type": "string"
            },
            {
              "internalType": "string",
              "name": "SSCC",
              "type": "string"
            },
            {
              "internalType": "string",
              "name": "SN",
              "type": "string"
            },
            {
              "internalType": "string",
              "name": "name",
              "type": "string"
            },
            {
              "internalType": "string",
              "name": "data",
              "type": "string"
            },
            {
              "internalType": "uint256",
              "name": "worker_id",
              "type": "uint256"
            },
            {
              "internalType": "uint256",
              "name": "id",
              "type": "uint256"
            },
            {
              "internalType": "uint256",
              "name": "timestamp",
              "type": "uint256"
            }
          ],
          "internalType": "struct Supplychain.Unit[]",
          "name": "",
          "type": "tuple[]"
        }
      ],
      "stateMutability": "view",
      "type": "function"
    },
    {
      "inputs": [],
      "name": "historyAll",
      "outputs": [
        {
          "components": [
            {
              "internalType": "string",
              "name": "GLN",
              "type": "string"
            },
            {
              "internalType": "string",
              "name": "GTIN",
              "type": "string"
            },
            {
              "internalType": "string",
              "name": "GSIN",
              "type": "string"
            },
            {
              "internalType": "string",
              "name": "SSCC",
              "type": "string"
            },
            {
              "internalType": "string",
              "name": "SN",
              "type": "string"
            },
            {
              "internalType": "string",
              "name": "name",
              "type": "string"
            },
            {
              "internalType": "string",
              "name": "data",
              "type": "string"
            },
            {
              "internalType": "uint256",
              "name": "worker_id",
              "type": "uint256"
            },
            {
              "internalType": "uint256",
              "name": "id",
              "type": "uint256"
            },
            {
              "internalType": "uint256",
              "name": "timestamp",
              "type": "uint256"
            }
          ],
          "internalType": "struct Supplychain.Unit[]",
          "name": "",
          "type": "tuple[]"
        }
      ],
      "stateMutability": "view",
      "type": "function"
    },
    {
      "inputs": [
        {
          "internalType": "string",
          "name": "",
          "type": "string"
        },
        {
          "internalType": "string",
          "name": "",
          "type": "string"
        },
        {
          "internalType": "uint256",
          "name": "",
          "type": "uint256"
        }
      ],
      "name": "particularunit",
      "outputs": [
        {
          "internalType": "string",
          "name": "GLN",
          "type": "string"
        },
        {
          "internalType": "string",
          "name": "GTIN",
          "type": "string"
        },
        {
          "internalType": "string",
          "name": "GSIN",
          "type": "string"
        },
        {
          "internalType": "string",
          "name": "SSCC",
          "type": "string"
        },
        {
          "internalType": "string",
          "name": "SN",
          "type": "string"
        },
        {
          "internalType": "string",
          "name": "name",
          "type": "string"
        },
        {
          "internalType": "string",
          "name": "data",
          "type": "string"
        },
        {
          "internalType": "uint256",
          "name": "worker_id",
          "type": "uint256"
        },
        {
          "internalType": "uint256",
          "name": "id",
          "type": "uint256"
        },
        {
          "internalType": "uint256",
          "name": "timestamp",
          "type": "uint256"
        }
      ],
      "stateMutability": "view",
      "type": "function"
    },
    {
      "inputs": [
        {
          "internalType": "uint256",
          "name": "",
          "type": "uint256"
        }
      ],
      "name": "units",
      "outputs": [
        {
          "internalType": "string",
          "name": "GLN",
          "type": "string"
        },
        {
          "internalType": "string",
          "name": "GTIN",
          "type": "string"
        },
        {
          "internalType": "string",
          "name": "GSIN",
          "type": "string"
        },
        {
          "internalType": "string",
          "name": "SSCC",
          "type": "string"
        },
        {
          "internalType": "string",
          "name": "SN",
          "type": "string"
        },
        {
          "internalType": "string",
          "name": "name",
          "type": "string"
        },
        {
          "internalType": "string",
          "name": "data",
          "type": "string"
        },
        {
          "internalType": "uint256",
          "name": "worker_id",
          "type": "uint256"
        },
        {
          "internalType": "uint256",
          "name": "id",
          "type": "uint256"
        },
        {
          "internalType": "uint256",
          "name": "timestamp",
          "type": "uint256"
        }
      ],
      "stateMutability": "view",
      "type": "function"
    },
    {
      "inputs": [
        {
          "internalType": "uint256",
          "name": "",
          "type": "uint256"
        }
      ],
      "name": "units_list",
      "outputs": [
        {
          "internalType": "string",
          "name": "GLN",
          "type": "string"
        },
        {
          "internalType": "string",
          "name": "GTIN",
          "type": "string"
        },
        {
          "internalType": "string",
          "name": "GSIN",
          "type": "string"
        },
        {
          "internalType": "string",
          "name": "SSCC",
          "type": "string"
        },
        {
          "internalType": "string",
          "name": "SN",
          "type": "string"
        },
        {
          "internalType": "string",
          "name": "name",
          "type": "string"
        },
        {
          "internalType": "string",
          "name": "data",
          "type": "string"
        },
        {
          "internalType": "uint256",
          "name": "worker_id",
          "type": "uint256"
        },
        {
          "internalType": "uint256",
          "name": "id",
          "type": "uint256"
        },
        {
          "internalType": "uint256",
          "name": "timestamp",
          "type": "uint256"
        }
      ],
      "stateMutability": "view",
      "type": "function"
    },
    {
      "inputs": [
        {
          "internalType": "uint256",
          "name": "",
          "type": "uint256"
        }
      ],
      "name": "workers",
      "outputs": [
        {
          "internalType": "uint256",
          "name": "id",
          "type": "uint256"
        },
        {
          "internalType": "string",
          "name": "name",
          "type": "string"
        }
      ],
      "stateMutability": "view",
      "type": "function"
    },
    {
      "inputs": [
        {
          "internalType": "uint256",
          "name": "wid",
          "type": "uint256"
        }
      ],
      "name": "workersInfo",
      "outputs": [
        {
          "components": [
            {
              "internalType": "uint256",
              "name": "id",
              "type": "uint256"
            },
            {
              "internalType": "string",
              "name": "name",
              "type": "string"
            }
          ],
          "internalType": "struct Supplychain.Worker[]",
          "name": "",
          "type": "tuple[]"
        }
      ],
      "stateMutability": "view",
      "type": "function"
    },
    {
      "inputs": [
        {
          "internalType": "uint256",
          "name": "",
          "type": "uint256"
        }
      ],
      "name": "workers_list",
      "outputs": [
        {
          "internalType": "uint256",
          "name": "id",
          "type": "uint256"
        },
        {
          "internalType": "string",
          "name": "name",
          "type": "string"
        }
      ],
      "stateMutability": "view",
      "type": "function"
    }
  ],
  "bytecode": "0x60806040526000600155600060025534801561001a57600080fd5b50336000806101000a81548173ffffffffffffffffffffffffffffffffffffffff021916908373ffffffffffffffffffffffffffffffffffffffff16021790555061379d8061006a6000396000f3fe608060405234801561001057600080fd5b50600436106100cf5760003560e01c80638d647e861161008c578063c8d4ea7211610066578063c8d4ea7214610257578063e5fba6cc14610273578063ed55c77d146102ac578063f1a22dc2146102dc576100cf565b80638d647e86146101cf578063b719504c14610208578063c4fb6a0214610238576100cf565b80630ca904fb146100d45780631fd93661146100f057806320e9932d146101175780634bbdbeff1461014757806355ed1a0114610165578063616cca2d14610196575b600080fd5b6100ee60048036038101906100e99190612c65565b61030d565b005b6100f8610460565b60405161010e9a9998979695949392919061339b565b60405180910390f35b610131600480360381019061012c9190612ca6565b61085a565b60405161013e9190613357565b60405180910390f35b61014f610d11565b60405161015c9190613357565b60405180910390f35b61017f600480360381019061017a9190612eff565b61118d565b60405161018d92919061348a565b60405180910390f35b6101b060048036038101906101ab9190612e80565b611249565b6040516101c69a9998979695949392919061339b565b60405180910390f35b6101e960048036038101906101e49190612eff565b6116ab565b6040516101ff9a9998979695949392919061339b565b60405180910390f35b610222600480360381019061021d9190612eff565b611ac7565b60405161022f9190613379565b60405180910390f35b610240611bc4565b60405161024e92919061348a565b60405180910390f35b610271600480360381019061026c9190612d12565b611c5e565b005b61028d60048036038101906102889190612eff565b612163565b6040516102a39a9998979695949392919061339b565b60405180910390f35b6102c660048036038101906102c19190612eff565b61256f565b6040516102d39190613468565b60405180910390f35b6102f660048036038101906102f19190612eff565b6129b9565b60405161030492919061348a565b60405180910390f35b60008054906101000a900473ffffffffffffffffffffffffffffffffffffffff1673ffffffffffffffffffffffffffffffffffffffff163373ffffffffffffffffffffffffffffffffffffffff161461036557600080fd5b604051806040016040528060025481526020018281525060106000820151816000015560208201518160010190805190602001906103a4929190612a65565b509050506012601090806001815401808255809150506001900390600052602060002090600202016000909190919091506000820154816000015560018201816001019080546103f390613606565b6103fe929190612aeb565b505050601060046000600254815260200190815260200160002060008201548160000155600182018160010190805461043690613606565b610441929190612aeb565b509050506002600081548092919061045890613669565b919050555050565b600680600001805461047190613606565b80601f016020809104026020016040519081016040528092919081815260200182805461049d90613606565b80156104ea5780601f106104bf576101008083540402835291602001916104ea565b820191906000526020600020905b8154815290600101906020018083116104cd57829003601f168201915b5050505050908060010180546104ff90613606565b80601f016020809104026020016040519081016040528092919081815260200182805461052b90613606565b80156105785780601f1061054d57610100808354040283529160200191610578565b820191906000526020600020905b81548152906001019060200180831161055b57829003601f168201915b50505050509080600201805461058d90613606565b80601f01602080910402602001604051908101604052809291908181526020018280546105b990613606565b80156106065780601f106105db57610100808354040283529160200191610606565b820191906000526020600020905b8154815290600101906020018083116105e957829003601f168201915b50505050509080600301805461061b90613606565b80601f016020809104026020016040519081016040528092919081815260200182805461064790613606565b80156106945780601f1061066957610100808354040283529160200191610694565b820191906000526020600020905b81548152906001019060200180831161067757829003601f168201915b5050505050908060040180546106a990613606565b80601f01602080910402602001604051908101604052809291908181526020018280546106d590613606565b80156107225780601f106106f757610100808354040283529160200191610722565b820191906000526020600020905b81548152906001019060200180831161070557829003601f168201915b50505050509080600501805461073790613606565b80601f016020809104026020016040519081016040528092919081815260200182805461076390613606565b80156107b05780601f10610785576101008083540402835291602001916107b0565b820191906000526020600020905b81548152906001019060200180831161079357829003601f168201915b5050505050908060060180546107c590613606565b80601f01602080910402602001604051908101604052809291908181526020018280546107f190613606565b801561083e5780601f106108135761010080835404028352916020019161083e565b820191906000526020600020905b81548152906001019060200180831161082157829003601f168201915b505050505090806007015490806008015490806009015490508a565b606060058360405161086c9190613340565b9081526020016040518091039020826040516108889190613340565b9081526020016040518091039020805480602002602001604051908101604052809291908181526020016000905b82821015610d0557838290600052602060002090600a0201604051806101400160405290816000820180546108ea90613606565b80601f016020809104026020016040519081016040528092919081815260200182805461091690613606565b80156109635780601f1061093857610100808354040283529160200191610963565b820191906000526020600020905b81548152906001019060200180831161094657829003601f168201915b5050505050815260200160018201805461097c90613606565b80601f01602080910402602001604051908101604052809291908181526020018280546109a890613606565b80156109f55780601f106109ca576101008083540402835291602001916109f5565b820191906000526020600020905b8154815290600101906020018083116109d857829003601f168201915b50505050508152602001600282018054610a0e90613606565b80601f0160208091040260200160405190810160405280929190818152602001828054610a3a90613606565b8015610a875780601f10610a5c57610100808354040283529160200191610a87565b820191906000526020600020905b815481529060010190602001808311610a6a57829003601f168201915b50505050508152602001600382018054610aa090613606565b80601f0160208091040260200160405190810160405280929190818152602001828054610acc90613606565b8015610b195780601f10610aee57610100808354040283529160200191610b19565b820191906000526020600020905b815481529060010190602001808311610afc57829003601f168201915b50505050508152602001600482018054610b3290613606565b80601f0160208091040260200160405190810160405280929190818152602001828054610b5e90613606565b8015610bab5780601f10610b8057610100808354040283529160200191610bab565b820191906000526020600020905b815481529060010190602001808311610b8e57829003601f168201915b50505050508152602001600582018054610bc490613606565b80601f0160208091040260200160405190810160405280929190818152602001828054610bf090613606565b8015610c3d5780601f10610c1257610100808354040283529160200191610c3d565b820191906000526020600020905b815481529060010190602001808311610c2057829003601f168201915b50505050508152602001600682018054610c5690613606565b80601f0160208091040260200160405190810160405280929190818152602001828054610c8290613606565b8015610ccf5780601f10610ca457610100808354040283529160200191610ccf565b820191906000526020600020905b815481529060010190602001808311610cb257829003601f168201915b505050505081526020016007820154815260200160088201548152602001600982015481525050815260200190600101906108b6565b50505050905092915050565b60606013805480602002602001604051908101604052809291908181526020016000905b8282101561118457838290600052602060002090600a020160405180610140016040529081600082018054610d6990613606565b80601f0160208091040260200160405190810160405280929190818152602001828054610d9590613606565b8015610de25780601f10610db757610100808354040283529160200191610de2565b820191906000526020600020905b815481529060010190602001808311610dc557829003601f168201915b50505050508152602001600182018054610dfb90613606565b80601f0160208091040260200160405190810160405280929190818152602001828054610e2790613606565b8015610e745780601f10610e4957610100808354040283529160200191610e74565b820191906000526020600020905b815481529060010190602001808311610e5757829003601f168201915b50505050508152602001600282018054610e8d90613606565b80601f0160208091040260200160405190810160405280929190818152602001828054610eb990613606565b8015610f065780601f10610edb57610100808354040283529160200191610f06565b820191906000526020600020905b815481529060010190602001808311610ee957829003601f168201915b50505050508152602001600382018054610f1f90613606565b80601f0160208091040260200160405190810160405280929190818152602001828054610f4b90613606565b8015610f985780601f10610f6d57610100808354040283529160200191610f98565b820191906000526020600020905b815481529060010190602001808311610f7b57829003601f168201915b50505050508152602001600482018054610fb190613606565b80601f0160208091040260200160405190810160405280929190818152602001828054610fdd90613606565b801561102a5780601f10610fff5761010080835404028352916020019161102a565b820191906000526020600020905b81548152906001019060200180831161100d57829003601f168201915b5050505050815260200160058201805461104390613606565b80601f016020809104026020016040519081016040528092919081815260200182805461106f90613606565b80156110bc5780601f10611091576101008083540402835291602001916110bc565b820191906000526020600020905b81548152906001019060200180831161109f57829003601f168201915b505050505081526020016006820180546110d590613606565b80601f016020809104026020016040519081016040528092919081815260200182805461110190613606565b801561114e5780601f106111235761010080835404028352916020019161114e565b820191906000526020600020905b81548152906001019060200180831161113157829003601f168201915b50505050508152602001600782015481526020016008820154815260200160098201548152505081526020019060010190610d35565b50505050905090565b6012818154811061119d57600080fd5b90600052602060002090600202016000915090508060000154908060010180546111c690613606565b80601f01602080910402602001604051908101604052809291908181526020018280546111f290613606565b801561123f5780601f106112145761010080835404028352916020019161123f565b820191906000526020600020905b81548152906001019060200180831161122257829003601f168201915b5050505050905082565b60058380516020810182018051848252602083016020850120818352809550505050505082805160208101820180518482526020830160208501208183528095505050505050818154811061129d57600080fd5b90600052602060002090600a020160009250925050508060000180546112c290613606565b80601f01602080910402602001604051908101604052809291908181526020018280546112ee90613606565b801561133b5780601f106113105761010080835404028352916020019161133b565b820191906000526020600020905b81548152906001019060200180831161131e57829003601f168201915b50505050509080600101805461135090613606565b80601f016020809104026020016040519081016040528092919081815260200182805461137c90613606565b80156113c95780601f1061139e576101008083540402835291602001916113c9565b820191906000526020600020905b8154815290600101906020018083116113ac57829003601f168201915b5050505050908060020180546113de90613606565b80601f016020809104026020016040519081016040528092919081815260200182805461140a90613606565b80156114575780601f1061142c57610100808354040283529160200191611457565b820191906000526020600020905b81548152906001019060200180831161143a57829003601f168201915b50505050509080600301805461146c90613606565b80601f016020809104026020016040519081016040528092919081815260200182805461149890613606565b80156114e55780601f106114ba576101008083540402835291602001916114e5565b820191906000526020600020905b8154815290600101906020018083116114c857829003601f168201915b5050505050908060040180546114fa90613606565b80601f016020809104026020016040519081016040528092919081815260200182805461152690613606565b80156115735780601f1061154857610100808354040283529160200191611573565b820191906000526020600020905b81548152906001019060200180831161155657829003601f168201915b50505050509080600501805461158890613606565b80601f01602080910402602001604051908101604052809291908181526020018280546115b490613606565b80156116015780601f106115d657610100808354040283529160200191611601565b820191906000526020600020905b8154815290600101906020018083116115e457829003601f168201915b50505050509080600601805461161690613606565b80601f016020809104026020016040519081016040528092919081815260200182805461164290613606565b801561168f5780601f106116645761010080835404028352916020019161168f565b820191906000526020600020905b81548152906001019060200180831161167257829003601f168201915b505050505090806007015490806008015490806009015490508a565b601381815481106116bb57600080fd5b90600052602060002090600a02016000915090508060000180546116de90613606565b80601f016020809104026020016040519081016040528092919081815260200182805461170a90613606565b80156117575780601f1061172c57610100808354040283529160200191611757565b820191906000526020600020905b81548152906001019060200180831161173a57829003601f168201915b50505050509080600101805461176c90613606565b80601f016020809104026020016040519081016040528092919081815260200182805461179890613606565b80156117e55780601f106117ba576101008083540402835291602001916117e5565b820191906000526020600020905b8154815290600101906020018083116117c857829003601f168201915b5050505050908060020180546117fa90613606565b80601f016020809104026020016040519081016040528092919081815260200182805461182690613606565b80156118735780601f1061184857610100808354040283529160200191611873565b820191906000526020600020905b81548152906001019060200180831161185657829003601f168201915b50505050509080600301805461188890613606565b80601f01602080910402602001604051908101604052809291908181526020018280546118b490613606565b80156119015780601f106118d657610100808354040283529160200191611901565b820191906000526020600020905b8154815290600101906020018083116118e457829003601f168201915b50505050509080600401805461191690613606565b80601f016020809104026020016040519081016040528092919081815260200182805461194290613606565b801561198f5780601f106119645761010080835404028352916020019161198f565b820191906000526020600020905b81548152906001019060200180831161197257829003601f168201915b5050505050908060050180546119a490613606565b80601f01602080910402602001604051908101604052809291908181526020018280546119d090613606565b8015611a1d5780601f106119f257610100808354040283529160200191611a1d565b820191906000526020600020905b815481529060010190602001808311611a0057829003601f168201915b505050505090806006018054611a3290613606565b80601f0160208091040260200160405190810160405280929190818152602001828054611a5e90613606565b8015611aab5780601f10611a8057610100808354040283529160200191611aab565b820191906000526020600020905b815481529060010190602001808311611a8e57829003601f168201915b505050505090806007015490806008015490806009015490508a565b60606012805480602002602001604051908101604052809291908181526020016000905b82821015611bb9578382906000526020600020906002020160405180604001604052908160008201548152602001600182018054611b2890613606565b80601f0160208091040260200160405190810160405280929190818152602001828054611b5490613606565b8015611ba15780601f10611b7657610100808354040283529160200191611ba1565b820191906000526020600020905b815481529060010190602001808311611b8457829003601f168201915b50505050508152505081526020019060010190611aeb565b505050509050919050565b6010806000015490806001018054611bdb90613606565b80601f0160208091040260200160405190810160405280929190818152602001828054611c0790613606565b8015611c545780601f10611c2957610100808354040283529160200191611c54565b820191906000526020600020905b815481529060010190602001808311611c3757829003601f168201915b5050505050905082565b6040518061014001604052808a815260200189815260200188815260200187815260200186815260200185815260200184815260200183815260200160015481526020014281525060066000820151816000019080519060200190611cc4929190612a65565b506020820151816001019080519060200190611ce1929190612a65565b506040820151816002019080519060200190611cfe929190612a65565b506060820151816003019080519060200190611d1b929190612a65565b506080820151816004019080519060200190611d38929190612a65565b5060a0820151816005019080519060200190611d55929190612a65565b5060c0820151816006019080519060200190611d72929190612a65565b5060e082015181600701556101008201518160080155610120820151816009015590505060066003600060015481526020019081526020016000206000820181600001908054611dc190613606565b611dcc929190612aeb565b506001820181600101908054611de190613606565b611dec929190612aeb565b506002820181600201908054611e0190613606565b611e0c929190612aeb565b506003820181600301908054611e2190613606565b611e2c929190612aeb565b506004820181600401908054611e4190613606565b611e4c929190612aeb565b506005820181600501908054611e6190613606565b611e6c929190612aeb565b506006820181600601908054611e8190613606565b611e8c929190612aeb565b50600782015481600701556008820154816008015560098201548160090155905050600588604051611ebe9190613340565b908152602001604051809103902085604051611eda9190613340565b9081526020016040518091039020600690806001815401808255809150506001900390600052602060002090600a02016000909190919091506000820181600001908054611f2790613606565b611f32929190612aeb565b506001820181600101908054611f4790613606565b611f52929190612aeb565b506002820181600201908054611f6790613606565b611f72929190612aeb565b506003820181600301908054611f8790613606565b611f92929190612aeb565b506004820181600401908054611fa790613606565b611fb2929190612aeb565b506005820181600501908054611fc790613606565b611fd2929190612aeb565b506006820181600601908054611fe790613606565b611ff2929190612aeb565b5060078201548160070155600882015481600801556009820154816009015550506013600690806001815401808255809150506001900390600052602060002090600a0201600090919091909150600082018160000190805461205490613606565b61205f929190612aeb565b50600182018160010190805461207490613606565b61207f929190612aeb565b50600282018160020190805461209490613606565b61209f929190612aeb565b5060038201816003019080546120b490613606565b6120bf929190612aeb565b5060048201816004019080546120d490613606565b6120df929190612aeb565b5060058201816005019080546120f490613606565b6120ff929190612aeb565b50600682018160060190805461211490613606565b61211f929190612aeb565b5060078201548160070155600882015481600801556009820154816009015550506001600081548092919061215390613669565b9190505550505050505050505050565b600360205280600052604060002060009150905080600001805461218690613606565b80601f01602080910402602001604051908101604052809291908181526020018280546121b290613606565b80156121ff5780601f106121d4576101008083540402835291602001916121ff565b820191906000526020600020905b8154815290600101906020018083116121e257829003601f168201915b50505050509080600101805461221490613606565b80601f016020809104026020016040519081016040528092919081815260200182805461224090613606565b801561228d5780601f106122625761010080835404028352916020019161228d565b820191906000526020600020905b81548152906001019060200180831161227057829003601f168201915b5050505050908060020180546122a290613606565b80601f01602080910402602001604051908101604052809291908181526020018280546122ce90613606565b801561231b5780601f106122f05761010080835404028352916020019161231b565b820191906000526020600020905b8154815290600101906020018083116122fe57829003601f168201915b50505050509080600301805461233090613606565b80601f016020809104026020016040519081016040528092919081815260200182805461235c90613606565b80156123a95780601f1061237e576101008083540402835291602001916123a9565b820191906000526020600020905b81548152906001019060200180831161238c57829003601f168201915b5050505050908060040180546123be90613606565b80601f01602080910402602001604051908101604052809291908181526020018280546123ea90613606565b80156124375780601f1061240c57610100808354040283529160200191612437565b820191906000526020600020905b81548152906001019060200180831161241a57829003601f168201915b50505050509080600501805461244c90613606565b80601f016020809104026020016040519081016040528092919081815260200182805461247890613606565b80156124c55780601f1061249a576101008083540402835291602001916124c5565b820191906000526020600020905b8154815290600101906020018083116124a857829003601f168201915b5050505050908060060180546124da90613606565b80601f016020809104026020016040519081016040528092919081815260200182805461250690613606565b80156125535780601f1061252857610100808354040283529160200191612553565b820191906000526020600020905b81548152906001019060200180831161253657829003601f168201915b505050505090806007015490806008015490806009015490508a565b612577612b78565b60036000838152602001908152602001600020604051806101400160405290816000820180546125a690613606565b80601f01602080910402602001604051908101604052809291908181526020018280546125d290613606565b801561261f5780601f106125f45761010080835404028352916020019161261f565b820191906000526020600020905b81548152906001019060200180831161260257829003601f168201915b5050505050815260200160018201805461263890613606565b80601f016020809104026020016040519081016040528092919081815260200182805461266490613606565b80156126b15780601f10612686576101008083540402835291602001916126b1565b820191906000526020600020905b81548152906001019060200180831161269457829003601f168201915b505050505081526020016002820180546126ca90613606565b80601f01602080910402602001604051908101604052809291908181526020018280546126f690613606565b80156127435780601f1061271857610100808354040283529160200191612743565b820191906000526020600020905b81548152906001019060200180831161272657829003601f168201915b5050505050815260200160038201805461275c90613606565b80601f016020809104026020016040519081016040528092919081815260200182805461278890613606565b80156127d55780601f106127aa576101008083540402835291602001916127d5565b820191906000526020600020905b8154815290600101906020018083116127b857829003601f168201915b505050505081526020016004820180546127ee90613606565b80601f016020809104026020016040519081016040528092919081815260200182805461281a90613606565b80156128675780601f1061283c57610100808354040283529160200191612867565b820191906000526020600020905b81548152906001019060200180831161284a57829003601f168201915b5050505050815260200160058201805461288090613606565b80601f01602080910402602001604051908101604052809291908181526020018280546128ac90613606565b80156128f95780601f106128ce576101008083540402835291602001916128f9565b820191906000526020600020905b8154815290600101906020018083116128dc57829003601f168201915b5050505050815260200160068201805461291290613606565b80601f016020809104026020016040519081016040528092919081815260200182805461293e90613606565b801561298b5780601f106129605761010080835404028352916020019161298b565b820191906000526020600020905b81548152906001019060200180831161296e57829003601f168201915b5050505050815260200160078201548152602001600882015481526020016009820154815250509050919050565b60046020528060005260406000206000915090508060000154908060010180546129e290613606565b80601f0160208091040260200160405190810160405280929190818152602001828054612a0e90613606565b8015612a5b5780601f10612a3057610100808354040283529160200191612a5b565b820191906000526020600020905b815481529060010190602001808311612a3e57829003601f168201915b5050505050905082565b828054612a7190613606565b90600052602060002090601f016020900481019282612a935760008555612ada565b82601f10612aac57805160ff1916838001178555612ada565b82800160010185558215612ada579182015b82811115612ad9578251825591602001919060010190612abe565b5b509050612ae79190612bcb565b5090565b828054612af790613606565b90600052602060002090601f016020900481019282612b195760008555612b67565b82601f10612b2a5780548555612b67565b82800160010185558215612b6757600052602060002091601f016020900482015b82811115612b66578254825591600101919060010190612b4b565b5b509050612b749190612bcb565b5090565b604051806101400160405280606081526020016060815260200160608152602001606081526020016060815260200160608152602001606081526020016000815260200160008152602001600081525090565b5b80821115612be4576000816000905550600101612bcc565b5090565b6000612bfb612bf6846134df565b6134ba565b905082815260208101848484011115612c1357600080fd5b612c1e8482856135c4565b509392505050565b600082601f830112612c3757600080fd5b8135612c47848260208601612be8565b91505092915050565b600081359050612c5f81613750565b92915050565b600060208284031215612c7757600080fd5b600082013567ffffffffffffffff811115612c9157600080fd5b612c9d84828501612c26565b91505092915050565b60008060408385031215612cb957600080fd5b600083013567ffffffffffffffff811115612cd357600080fd5b612cdf85828601612c26565b925050602083013567ffffffffffffffff811115612cfc57600080fd5b612d0885828601612c26565b9150509250929050565b60008060008060008060008060006101208a8c031215612d3157600080fd5b60008a013567ffffffffffffffff811115612d4b57600080fd5b612d578c828d01612c26565b99505060208a013567ffffffffffffffff811115612d7457600080fd5b612d808c828d01612c26565b98505060408a013567ffffffffffffffff811115612d9d57600080fd5b612da98c828d01612c26565b97505060608a013567ffffffffffffffff811115612dc657600080fd5b612dd28c828d01612c26565b96505060808a013567ffffffffffffffff811115612def57600080fd5b612dfb8c828d01612c26565b95505060a08a013567ffffffffffffffff811115612e1857600080fd5b612e248c828d01612c26565b94505060c08a013567ffffffffffffffff811115612e4157600080fd5b612e4d8c828d01612c26565b93505060e0612e5e8c828d01612c50565b925050610100612e708c828d01612c50565b9150509295985092959850929598565b600080600060608486031215612e9557600080fd5b600084013567ffffffffffffffff811115612eaf57600080fd5b612ebb86828701612c26565b935050602084013567ffffffffffffffff811115612ed857600080fd5b612ee486828701612c26565b9250506040612ef586828701612c50565b9150509250925092565b600060208284031215612f1157600080fd5b6000612f1f84828501612c50565b91505092915050565b6000612f3483836130dd565b905092915050565b6000612f4883836132e5565b905092915050565b6000612f5b82613530565b612f65818561356b565b935083602082028501612f7785613510565b8060005b85811015612fb35784840389528151612f948582612f28565b9450612f9f83613551565b925060208a01995050600181019050612f7b565b50829750879550505050505092915050565b6000612fd08261353b565b612fda818561357c565b935083602082028501612fec85613520565b8060005b8581101561302857848403895281516130098582612f3c565b94506130148361355e565b925060208a01995050600181019050612ff0565b50829750879550505050505092915050565b600061304582613546565b61304f818561358d565b935061305f8185602086016135d3565b6130688161373f565b840191505092915050565b600061307e82613546565b613088818561359e565b93506130988185602086016135d3565b6130a18161373f565b840191505092915050565b60006130b782613546565b6130c181856135af565b93506130d18185602086016135d3565b80840191505092915050565b60006101408301600083015184820360008601526130fb828261303a565b91505060208301518482036020860152613115828261303a565b9150506040830151848203604086015261312f828261303a565b91505060608301518482036060860152613149828261303a565b91505060808301518482036080860152613163828261303a565b91505060a083015184820360a086015261317d828261303a565b91505060c083015184820360c0860152613197828261303a565b91505060e08301516131ac60e0860182613322565b506101008301516131c1610100860182613322565b506101208301516131d6610120860182613322565b508091505092915050565b60006101408301600083015184820360008601526131ff828261303a565b91505060208301518482036020860152613219828261303a565b91505060408301518482036040860152613233828261303a565b9150506060830151848203606086015261324d828261303a565b91505060808301518482036080860152613267828261303a565b91505060a083015184820360a0860152613281828261303a565b91505060c083015184820360c086015261329b828261303a565b91505060e08301516132b060e0860182613322565b506101008301516132c5610100860182613322565b506101208301516132da610120860182613322565b508091505092915050565b60006040830160008301516132fd6000860182613322565b5060208301518482036020860152613315828261303a565b9150508091505092915050565b61332b816135ba565b82525050565b61333a816135ba565b82525050565b600061334c82846130ac565b915081905092915050565b600060208201905081810360008301526133718184612f50565b905092915050565b600060208201905081810360008301526133938184612fc5565b905092915050565b60006101408201905081810360008301526133b6818d613073565b905081810360208301526133ca818c613073565b905081810360408301526133de818b613073565b905081810360608301526133f2818a613073565b905081810360808301526134068189613073565b905081810360a083015261341a8188613073565b905081810360c083015261342e8187613073565b905061343d60e0830186613331565b61344b610100830185613331565b613459610120830184613331565b9b9a5050505050505050505050565b6000602082019050818103600083015261348281846131e1565b905092915050565b600060408201905061349f6000830185613331565b81810360208301526134b18184613073565b90509392505050565b60006134c46134d5565b90506134d08282613638565b919050565b6000604051905090565b600067ffffffffffffffff8211156134fa576134f9613710565b5b6135038261373f565b9050602081019050919050565b6000819050602082019050919050565b6000819050602082019050919050565b600081519050919050565b600081519050919050565b600081519050919050565b6000602082019050919050565b6000602082019050919050565b600082825260208201905092915050565b600082825260208201905092915050565b600082825260208201905092915050565b600082825260208201905092915050565b600081905092915050565b6000819050919050565b82818337600083830152505050565b60005b838110156135f15780820151818401526020810190506135d6565b83811115613600576000848401525b50505050565b6000600282049050600182168061361e57607f821691505b60208210811415613632576136316136e1565b5b50919050565b6136418261373f565b810181811067ffffffffffffffff821117156136605761365f613710565b5b80604052505050565b6000613674826135ba565b91507fffffffffffffffffffffffffffffffffffffffffffffffffffffffffffffffff8214156136a7576136a66136b2565b5b600182019050919050565b7f4e487b7100000000000000000000000000000000000000000000000000000000600052601160045260246000fd5b7f4e487b7100000000000000000000000000000000000000000000000000000000600052602260045260246000fd5b7f4e487b7100000000000000000000000000000000000000000000000000000000600052604160045260246000fd5b6000601f19601f8301169050919050565b613759816135ba565b811461376457600080fd5b5056fea26469706673582212209d569874acaf283c360aa0a6e3592e6d0671dd82f0b57ed1a00524660f5ddb4c64736f6c63430008040033",
  "linkReferences": {},
  "deployedLinkReferences": {}
}